:020000002100DD
:02000300218159
:0200130021B713
:02000B0081680A
:02001B0081A3BF
:10010000D2AFD2A8D2AAD288D28AD2A3D2A9D2AB55
:10011000758911D2A0D2A1D2A29001FCC375200092
:1001200075210075220075701E751CFF751D1475F4
:100130001EFF751F14314C00515000314C00718A64
:1001400000314C00913D00314C0080E99001FCE50C
:100150002093F590C2A200D570FCD2A275701EE566
:100160002193F590C2A000D570FCD2A075701EE559
:100170002293F590C2A100D570FCD2A175701E002B
:1001800022E522B40402802EE520B409028008E5AD
:100190002004F52000801FE521B40902800B7400C3
:1001A000F520E52104F521800D7400F5207400F59B
:1001B00021E52204F52232E522B400108000E52179
:1001C000B400098000E520B40002802FE520B400CF
:1001D000028007E52014F5208021E521B40002808B
:1001E0000B7409F520E52114F521800F7409F52021
:1001F0007409F521E52214F5228000323F065B4F99
:06020000666D7C077F67BC
:100250007583007582008000D2A3000000000000BA
:10026000C2A30000000000D2A3E580F875F028A426
:1002700085F033F5327B007AFFA933A83280007F06
:10028000007E0075F010C3E833F8E933F9EE33FE71
:10029000EF33FFEEC39AF582EF9BF583B35004AFC3
:1002A00083AE82EC33FCED33FDD5F0DAEDF9ECF8FA
:1002B000EFFBEEFA893188308B358A34E53475F0FE
:1002C0000AA485F035F53480007B007AFFA935A8B3
:1002D0003480007F007E0075F010C3E833F8E93306
:1002E000F9EE33FEEF33FFEEC39AF582EF9BF58311
:1002F000B35004AF83AE82EC33FCED33FDD5F0DABE
:10030000EDF9ECF8EFFBEEFA894188408000E5401A
:1003100075F00A84C425F0F550800075F000E530D2
:1003200075F00A84C425F0F551800075F000E531C0
:1003300075F01084C425F080008521F0E522C425E5
:10034000F0F549E520F54875F00AE522A42521F5E8
:1003500038C3E550954840025014C3E550240A952F
:1003600048F552C3E53094019538F555800FC3E543
:10037000509548F552E5309538F555800075F00AEE
:1003800084C425F0F55380000022780079007A00BB
:100390007B007C007D007E007F0080007800A955F6
:1003A0007A847B03C0F0C082E88AF0A4C0E0C0F089
:1003B000E88BF0A4D00028F8E435F0F582EA89F063
:1003C000A428F8E58235F0F582E43400C0E0EB893A
:1003D000F0A42582FAD0E035F0FBA900D000D0824D
:1003E000D0F0EAF558E9F5598000780079007A00F4
:1003F0007B007C007D007E007F00A958A8597B000F
:100400007A2875F010C3E833F8E933F9EE33FEEFDC
:1004100033FFEEC39AF582EF9BF583B35004AF83AD
:10042000AE82EC33FCED33FDD5F0DAEDF9ECF8EF0C
:10043000FBEEFA89608861800280FE0022E5107080
:1004400073780079007A007B007C007D007E007F5D
:1004500000C375891174FF9560F58C74FF9561F583
:100460008AD28C751001804CF52D74FF9560F5656E
:1004700074FF9561F56674039560F56274FF95618C
:10048000F56374FF9562F56D74FF9563F56E856590
:100490008C85668A856D8D856E8BE52DC2A5C28C97
:1004A000D28E32C0E0856D8D856E8BD2A5D28CC286
:0604B0008ED0E0320022B4
:00000001FF
